:100000000C9434000C943E000C943E000C943E0082
:100010000C943E000C943E000C943E000C943E0068
:100020000C943E000C943E000C943E000C943E0058
:100030000C943E000C944B000C943E000C943E003B
:100040000C943E000C943E000C943E000C943E0038
:100050000C943E000C943E000C943E000C943E0028
:100060000C943E000C943E0011241FBECFEFD8E04C
:10007000DEBFCDBF0E9440000C945A000C940000DB
:100080008FEF84B915B881E080936F0083E080938F
:1000900081007894FFCF1F920F920FB60F92112418
:1000A0008F9385B1809585B98F910F900FBE0F907A
:0800B0001F901895F894FFCF92
:00000001FF
